:020000040800F2
:10000000E0040020A10100089D210008751F0008E0
:10001000992100080D020008C32700080000000015
:100020000000000000000000000000003123000874
:1000300011020008000000009F210008332300087F
:10004000BB010008BB010008BB010008BB010008A0
:10005000BB010008BB010008BB010008BB01000890
:10006000BB010008BB010008BB010008BB01000880
:10007000BB010008BB010008BB010008BB01000870
:10008000BB010008BB010008BB0100080000000024
:10009000000000000000000000000000BB0100089C
:1000A000BB010008BB010008BB010008BB01000840
:1000B000BB0100080000000000000000BB010008B8
:1000C000BB010008BB010008BB010008BB01000820
:1000D000BB010008BB010008BB010008BB01000810
:1000E000BB010008BB010008000000000000000088
:1000F0000000000000000000000000000000000000
:1001000000000000000000000000000000000000EF
:100110000000000000000000BB010008000000001B
:10012000BB010008BB010008BB010008BB010008BF
:10013000BB010008000000000000000000000000FB
:10014000BB010008BB010008BB010008BB0100089F
:10015000BB010008BB010008BB010008BB0100088F
:10016000BB010008BB010008000000000000000007
:1001700000000000BB0100080000000000000000BB
:10018000BB010008BB010008BB010008DFF80CD070
:1001900000F02AF8004800476D280008E00400201D
:1001A0000648804706480047FEE7FEE7FEE7FEE711
:1001B000FEE7FEE7FEE7FEE7FEE7FEE7A523000811
:1001C0008D010008D2B201E000F8012B491EFBD2DC
:1001D00070470022F6E710B513460A460446194652
:1001E000FFF7F0FF204610BD064C074D06E0E06823
:1001F00040F0010394E8070098471034AC42F6D36E
:10020000FFF7C8FF3C2900085C29000800BFFEE793
:10021000704700001849087F012801D0032811D138
:1002200000BF1649096841F40061144A1160114683
:10023000096821F40061116000BF1146096841F4AA
:1002400000711160022801D0032811D100BF0B49B1
:10025000096841F48051094A11601146096821F486
:100260008051116000BF1146096841F4806111603E
:100270000021014A117770470C0000200020024045
:1002800000F0010129B10649496941F00401044A1D
:1002900051610349496941F48031014A5161704714
:1002A00000200240094A526922F4FC72C3B242EAB9
:1002B000C302064B5A611A46526942F002025A6161
:1002C0001A46526942F480325A6170470020024057
:1002D00010B50849496941F00101064C61610260AD
:1002E00000BF00BF00BFBFF36F8F00BF00BF00BFE4
:1002F000436010BD00200240F0B502464023144682
:100300000D460C4E766946F480260A4F7E6100BF8A
:10031000EFF31086304672B600BF2E682660241DAB
:100320002D1D5E1EF3B2002BF7D100BF80F31088A5
:1003300000BFF0BD0020024070B5054600F058FA3D
:10034000064608E0681C30B100F052FA801BA84253
:1003500001D3032070BD1948006900F48030B0F566
:10036000803FEFD015480069154900EA0104CCB17F
:100370001448406820431349486000BF04F04040DF
:1003800030B10E48806904F0404108430B49886150
:1003900024F0404018B124F040400849086100BFF3
:1003A0000120D7E70548006900F0010020B100BF37
:1003B00001200249086100BF0020CBE70020024075
:1003C000FAC302000C00002010B501460348826801
:1003D00001FB02F06424B0FBF4F010BD00E0000863
:1003E0000348816A42F21073B3FBF1F0401E70477C
:1003F00000E00008014881690846704700E00008F5
:10040000014801690846704700E0000810B5014640
:100410000348026801FB02F06424B0FBF4F010BD55
:1004200000E000080348016A42F21073B3FBF1F0E8
:10043000401E704700E000082DE9F04104460F46D9
:1004400000BF3E480078012802D10220BDE8F081BB
:1004500001203A49087000BF4CF25030FFF76CFFA2
:100460000646002E62D1354948603548006800F4E0
:100470000070B8B13248006820F40070304908605C
:100480000846006800F4806040B10846006820F427
:100490008060086003202949087715E0012027497A
:1004A000087711E02648006800F4806048B12448CD
:1004B000006820F480602249086002201F49087704
:1004C00002E000201D490877206801280ED16068ED
:1004D000FFF7D6FE4CF25030FFF72EFF06461848C5
:1004E000406920F00400164948611DE04FF0FF30DC
:1004F0003860A56812E028466168FFF7D3FE4CF229
:100500005030FFF719FF06460D48406920F4FD7092
:100510000B4948610EB13D6005E06D1CD4E9020154
:100520000844A842E7D800BFFFF774FE00BF0020D0
:100530000249087000BF304688E700000C00002028
:10054000002002402DE9F0470446884615461E4625
:100550004FF0000900BF29480078012802D102208D
:10056000BDE8F08701202549087000BF4CF25030EB
:10057000FFF7E2FE0746002F38D1204948602048A7
:10058000006800F4806048B11D48006820F4806075
:100590001B49086002201949087702E0002017492A
:1005A00008773CB92A4633464046FFF791FE4FF0A4
:1005B00001090BE0012C01D0022C07D1294640464D
:1005C000FFF79AFE022C01D14FF480294CF25030F3
:1005D000FFF7B2FE0746B9F1000F05D008484069A1
:1005E00020EA090006494861FFF714FE00BF002019
:1005F0000249087000BF3846B2E700000C00002036
:100600000020024000200849496901F0004151B131
:100610000649054A9160064991601146496901F011
:10062000004101B1012070470020024023016745CD
:10063000AB89EFCD78B503460022C6E0012696408F
:100640000D6805EA0604002C72D04D68012D08D013
:100650004D68022D05D04D68112D02D04D68122D28
:1006600013D1986856000325B540A8435600CD68BD
:10067000B54028439860586801259540A8430D79F6
:10068000C5F30015954028435860D86856000325E7
:10069000B540A84356008D68B5402843D8604D68E2
:1006A000022D02D04D68122D13D1D60803F120057A
:1006B00055F826005507EE0E0F25B540A8435607FE
:1006C000F60E0D69B5402843D60803F1200545F81C
:1006D0002600186856000325B540A8430D7905F09B
:1006E00003055600B540284318604D6805F0805555
:1006F000B5F1805F68D100BF374D2D6E45F0010523
:10070000354E356635462D6E05F00105009500BF66
:1007100000BF4FEAB635960855F8260095072E0F0C
:100720000F25B540A843B3F1904F02D1002510E04A
:100730004AE02A4DAB4201D101250AE0284DAB42E7
:1007400001D1022505E0274DAB4201D1032500E090
:1007500007259607360FB5402843234D960845F8E0
:100760002600224D2868A0434D6805F48035B5F574
:10077000803F00D120431D4D28602D1D2868A043D7
:100780004D6805F40035B5F5003F00D12043174D05
:100790002D1D28602D1D2868A0434D6805F4801587
:1007A000B5F5801F00D12043104D083528602D1D60
:1007B0002868A0434D6805F40015B5F5001F00D169
:1007C00020430A4D0C352860521C0D68D540002D81
:1007D0007FF434AF78BD00000010024000040048F0
:1007E00000080048000C00480800014000040140D7
:1007F00001480068704700000000002003480068BE
:100800000349096808440149086070470000002056
:100810000800002010B50024032000F099F8002003
:1008200000F008F808B1012401E000F02FF820469C
:1008300010BD000070B50446002511480068D8B10D
:100840000F4800684FF47A71B1FBF0F00D49096868
:10085000B1FBF0F6304601F00DF958B9102C07D273
:1008600000222146501E00F031F80748046004E0E1
:10087000012502E0012500E00125284670BD0000A9
:10088000080000202C0000200400002008B500BF54
:100890000D48006E40F001000B4908660846006EE6
:1008A00000F00100009000BF00BF00BF0846806D4F
:1008B00040F0805088650846806D00F080500090C0
:1008C00000BF00BF08BD0000001002402DE9F05F2E
:1008D00080460D461646002701F09CFF0746394624
:1008E0002A46334601F00700C0F1070ABAF1040FA7
:1008F00002D94FF0040A01E0C0F1070AD14600F125
:10090000040ABAF1070F02D24FF0000A01E0A0F189
:10091000030AD4464FF0010A0AFA09FAAAF1010AB9
:100920000AEA020A0AFA0CFA4FF0010B0BFA0CFB66
:10093000ABF1010B0BEA030B4AEA0B0421464046DC
:1009400001F070FF00F000B830BCBDE8C09F0000AF
:1009500000BF00F00702064B19684FF6FF0319406D
:10096000044B0B4343EA0221014B196000BF70475F
:100970000CED00E00000FA050246B2F5007F2AD136
:100980001D48006800F4C060B0F5007F32D01A48FE
:10099000006820F4C06040F40070174B18601748DE
:1009A000006832235843164BB0FBF3F0411C00E0C3
:1009B000491E1148406900F48060B0F5806F01D194
:1009C0000029F5D10C48406900F48060B0F5806FD3
:1009D00010D1032070470848006800F4C060B0F5EB
:1009E000806F07D00448006820F4C06040F4806045
:1009F000014B18600020EDE7007000402C00002043
:100A000040420F000248006800F4C06070470000D8
:100A1000007000402DE9F84304460026B0462068E7
:100A200000F40030B0F5003F74D1B146A048806DAD
:100A3000012121EA107078B100BF9D48806D40F01F
:100A400080509B4988650846806D00F0805000907A
:100A500000BF00BF4FF001099648006840F4807065
:100A600094490860FFF7C4FE074606E0FFF7C0FEA2
:100A7000C01B022801D9032605E08E48006800F457
:100A800080700028F2D000BF002E46D188489030F8
:100A9000006800F44075CDB1206BA84216D08448A0
:100AA0009030006820F440758148D0F8900040F400
:100AB00080307F49C1F890000846D0F8900020F4BB
:100AC0008030C1F890000846C0F8905005F0010051
:100AD000A0B1FFF78DFE074608E0FFF789FEC01BB7
:100AE00041F28831884201D9032606E070489030EF
:100AF000006800F002000028EFD000BF5EB96C482B
:100B00009030006820F44070216B08436849C1F8B8
:100B1000900003E00CE0B04600E0B046B9F1010FF0
:100B200005D16348806D20F080506149886500BF21
:100B3000207800F0010048B15D488830006820F05E
:100B40000300616808435A49C1F88800207800F022
:100B50000200022809D156488830006820F00C00B5
:100B6000A16808435249C1F88800207800F00400C9
:100B7000042809D14E488830006820F03000E16830
:100B800008434B49C1F88800207800F02000202855
:100B900009D147488830006820F440602169084343
:100BA0004349C1F88800208800F40070B0F5007F48
:100BB00009D13F488830006820F44020216A08436A
:100BC0003B49C1F88800208800F48060B0F5806F50
:100BD00009D137488830006820F44010616A084322
:100BE0003349C1F88800207800F04000402809D13E
:100BF0002F488830006820F44050616908432C4930
:100C0000C1F88800207800F08000802809D12848A9
:100C10008830006820F44040A16908432449C1F8A5
:100C20008800208800F48070B0F5807F09D12048CA
:100C30008830006820F44030E16908431C49C1F85D
:100C40008800208800F40050B0F5005F13D11848E8
:100C50008830006820F04060A16A08431449883158
:100C60000860A06AB0F1006F05D11148C06840F477
:100C700080100F49C860206800F48020B0F5802FF4
:100C800013D10B488830006820F04060E16A0843C7
:100C9000074988310860E06AB0F1006F05D1044867
:100CA000C06840F480100249C8604046BDE8F8833F
:100CB00000100240007000402DE9F04104460D464E
:100CC00014B90120BDE8F0815548006800F0070024
:100CD000A8420ED25248006820F00700284350492D
:100CE00008600846006800F00700A84201D0012013
:100CF000E8E7207800F00100002840D06068032871
:100D000006D14848006800F00070D8B90120D9E742
:100D10006068022806D14348006800F4003088B9B2
:100D20000120CFE7606830B93E48006800F002005B
:100D300040B90120C6E73B48006800F4806008B96C
:100D40000120BFE73748806820F00300616808434E
:100D500034498860FFF74CFD064608E0FFF748FD80
:100D6000801B41F28831884201D90320AAE72D482F
:100D7000806800F00C006168B0EB810FEED1207844
:100D800000F00200022807D12648806820F0F00019
:100D9000A1680843234988602148006800F00700E3
:100DA000A8420ED91E48006820F0070028431C49BD
:100DB00008600846006800F00700A84201D0012042
:100DC00080E7207800F00400042807D115488068E7
:100DD00020F4E060E168084312498860207800F060
:100DE0000800082808D10F48806820F46050216965
:100DF00040EAC1000B49886000F01CF80949896885
:100E0000C1F30311084A515C01F01F01C8400749B2
:100E1000086007480068FFF70DFD0746384651E7B0
:100E20000020024000100240F42800082C0000209E
:100E300004000020F0B500230020DFF8D4C0DCF867
:100E400008C00CF00C01DFF8C8C0DCF80CC00CF0D6
:100E5000030719B10C291ED1012F1CD1DFF8B0C036
:100E6000DCF800C00CF0080CBCF1000F06D1DFF874
:100E7000A0C0DCF894C0CCF3032305E0DFF890C0F9
:100E8000DCF800C0CCF30313DFF888C05CF8233033
:100E900041B9184606E0042901D11F4802E008299B
:100EA00000D11E480C2932D1DFF864C0DCF80CC038
:100EB0000CF00304012C09D0022C02D0032C04D125
:100EC00001E0154A04E0154A02E000BF1A4600BFDF
:100ED00000BFDFF83CC0DCF80CC0CCF3021C0CF106
:100EE0000106DFF82CC0DCF80CC0CCF3062C0CFBA0
:100EF00002FCBCFBF6F2DFF818C0DCF80CC0CCF347
:100F0000416C0CF1010C4FEA4C05B2FBF5F0F0BD61
:100F1000001002400C2900080024F40000127A009E
:100F20002DE9F843044614B90120BDE8F883FA48D6
:100F3000806800F00C06F848C06800F003072078CD
:100F400000F01000102877D11EB10C2E76D1012FA1
:100F500074D1F148006800F0020018B1E06908B9E6
:100F60000120E2E7EC48616A006800F0080020B167
:100F7000E948006800F0F00005E0E74894300068B8
:100F800000F47060000981421FD9606A01F008F91D
:100F900008B10120C9E700BFDF48006840F0080041
:100FA000DD4908600846006820F0F000616A0843E7
:100FB000D949086000BF0846406820F47F40216A94
:100FC00040EA0120D44948601FE000BFD2480068D1
:100FD00040F00800D04908600846006820F0F000A2
:100FE000616A0843CC49086000BF0846406820F4A5
:100FF0007F40216A40EA0120C74948602EB9606AF3
:1010000001F0CEF808B101208FE7FFF713FFC249C6
:101010008968C1F30311C14A515C01F01F01C84046
:10102000BF490860BF480068FFF704FC8146B9F17A
:10103000000F4ED0484678E74BE0FFE7E06980B309
:10104000B548006840F00100B3490860FFF7D0FBE5
:10105000054606E0FFF7CCFB401B022801D9032020
:1010600063E7AD48006800F002000028F2D000BF3E
:10107000A948006840F00800A749086008460068D1
:1010800020F0F000616A0843A349086000BF0846E9
:10109000406820F47F40216A40EA01209E49486070
:1010A00017E0FFE79C48006820F001009A490860BB
:1010B000FFF79EFB054606E0FFF79AFB401B022860
:1010C00001D9032031E79448006800F002000028AD
:1010D000F2D1207800F0010000285CD0082E03D067
:1010E0000C2E0AD1032F08D18B48006800F4003081
:1010F00088B3606878BB012017E700BF6068B0F56F
:10110000803F06D18448006840F4803082490860FE
:101110001AE06068B0F5A02F0BD17F48006840F45A
:1011200080207D4908600846006840F480300860EF
:101130000AE07948006820F4803077490860084662
:10114000006820F48020086000BF606890B1FFF75D
:101150004FFB054607E01EE0FFF74AFB401B6428F3
:1011600001D90320E1E66C48006800F40030002853
:10117000F2D010E0FFF73CFB054606E0FFF738FB36
:10118000401B642801D90320CFE66348006800F4BF
:1011900000300028F2D1207800F00200022852D15D
:1011A000042E03D00C2E14D1022F12D15A480068FD
:1011B00000F4806018B1E06808B90120B5E656482F
:1011C000406820F0FE40217C40EA016052494860BE
:1011D00039E0E06800B35048006840F480704E4940
:1011E0000860FFF705FB054606E0FFF701FB401B23
:1011F000022801D9032098E64748006800F480607F
:101200000028F2D04448406820F0FE40217C40EAAB
:1012100001604149486016E03F48006820F4807052
:101220003D490860FFF7E4FA054606E0FFF7E0FAFB
:10123000401B022801D9032077E63748006800F4F4
:1012400080600028F2D1207800F00800082878D1CA
:101250006069E0B330489430D0F8008008F01001A5
:10126000A06988422FD008F00200022804D108F0BB
:10127000010008B9012058E608F00100C8B126486D
:101280009430006820F001002349C1F89400FFF772
:10129000AFFA054606E0FFF7ABFA401B112801D96B
:1012A000032042E61C489430006800F00200002849
:1012B000F1D119489430006820F01000A16908436A
:1012C0001549C1F8940014489430006800E017E014
:1012D00040F001001049C1F89400FFF789FA054673
:1012E00006E0FFF785FA401B112801D903201CE610
:1012F00009489430006800F002000028F1D020E096
:1013000005489430006820F001000349C1F89400BA
:10131000FFF76EFA05460EE000100240F4280008C0
:101320002C00002004000020FFF762FA401B112867
:1013300001D90320F9E5EB48006800F0020000281D
:10134000F2D1207800F00400042879D14FF0000891
:10135000E4489438806D00F0805088B900BFE148BF
:101360009438806D40F08050DE4994398865084695
:10137000806D00F08050009000BF00BF4FF001086A
:10138000D948006800F48070B0B9D748006840F4CC
:101390008070D5490860FFF72BFA054606E0FFF795
:1013A00027FA401B022801D90320BEE5CE48006879
:1013B00000F480700028F2D0207A00F0010048B3D9
:1013C000C848001F006820F08000217A01F08001E9
:1013D0000843C449091F0860207A00F0040078B16E
:1013E0000846006840F00400BE499439C1F89000F6
:1013F0000846D0F8900040F00100C1F8900019E0D4
:10140000B848001F006840F00100B6499439C1F89F
:1014100090000FE0B348001F006820F00100B149C0
:101420009439C1F890000846D0F8900020F00400EC
:10143000C1F89000A068A8B1FFF7DAF9054609E005
:1014400039E0FFF7D5F9401B41F28831884201D9D4
:1014500003206AE5A348001F006800F0020000288E
:10146000EFD01CE0FFF7C4F9054608E0FFF7C0F92C
:10147000401B41F28831884201D9032055E5994843
:10148000001F006800F002000028EFD19548001FFF
:10149000006820F0800093499439C1F89000B8F1B9
:1014A000010F07D18F489438806D20F080508D490E
:1014B0009439886500BF207800F02000202838D1BA
:1014C000A06AD8B18748001D006840F00100854936
:1014D0009439C1F89800FFF78BF9054606E0FFF74D
:1014E00087F9401B022801D903201EE57D48001D15
:1014F000006800F002000028F1D01AE07948001DD1
:10150000006820F0010077499439C1F89800FFF78E
:101510006FF9054606E0FFF76BF9401B022801D979
:10152000032002E56F48001D006800F0020000285B
:10153000F1D1E06A002870D0E06A02286ED16948D3
:101540009438C76807F00301206B81421ED107F071
:101550007001606B401EB1EB001F17D107F4FE4114
:10156000A06BB1EB002F11D107F4C001A08F0122B5
:10157000C2EB5000B1EB405F08D107F0C0614020E2
:10158000005DC2EB5000B1EB406F59D00C2E55D02E
:1015900054489438006820F08070524994390860AB
:1015A000FFF726F9054606E0FFF722F9401B02285F
:1015B00001D90320B9E44B489438006800F000706A
:1015C0000028F1D1D4E90C10401E41EA0011A06BB3
:1015D00041EA0021A08F0122C2EB500041EA4051B4
:1015E0004020005DC2EB500041EA40603D49943923
:1015F000C9683E4A114008433A499439C8600846D0
:10160000006840F0807008600846C06840F0807054
:10161000C860FFF7EDF8054608E04FE036E0FFF759
:10162000E7F8401B022801D903207EE42D489438B6
:10163000006800F000700028F1D051E0012074E44F
:1016400028489438006800F00070B8BB25489438EA
:10165000006840F080702349943908600846C068EB
:1016600040F08070C860FFF7C3F8054606E0FFF75A
:10167000BFF8401B022801D9032056E419489438CA
:10168000006800F000700028F1D029E00C2E25D071
:1016900014489438006820F080701249943908602A
:1016A0000846C06820F00300C8600846C06820F003
:1016B0008870C860FFF79CF8054607E010E0FFF768
:1016C00097F8401B022801D903202EE405489438DE
:1016D000006800F000700028F1D101E0012024E44E
:1016E000002022E494100240007000408C809FF99A
:1016F00070B505460B461646286840680E4900EA54
:101700000104200CD870C4F30420587004F03F008A
:101710009870C4F3423018705EB9D87800F08EFD2E
:10172000D870587800F08AFD5870987800F086FDDF
:101730009870002070BD00003FFFFF0070B50446A8
:101740000B46164620688068586020680069C0F320
:101750000E009860206800680E4900EA0105C5F394
:1017600005401870C5F30620587005F07F0098708A
:10177000A80DD8705EB9187800F060FD1870587820
:1017800000F05CFD5870987800F058FD98700020CB
:1017900070BD00007F7F7F0070B504460125002CDE
:1017A00053D094F8290028B9002084F82800204656
:1017B00000F050F84FF440606060022084F8290087
:1017C00000BFCA202168486253202168486200BFD8
:1017D000204600F04BFD0546002D36D1206880697B
:1017E0001B490840216888616169A0680843E16974
:1017F0000843216889690843216888612168206954
:10180000086120680169A08941EA004021680861F7
:10181000204600F051FD0546BDB92068806920F0E2
:10182000604021688861D4E908100843A169084331
:101830002168896908432168886100BFFF20216809
:10184000486200BF012084F82900284670BD0000CE
:10185000BFFF8FFB064A0168914207D1054909681D
:1018600041F40041034A903AC2F8901070470000DA
:1018700000280040901002402DE9F04705460C4634
:10188000174600BF95F82800012802D10220BDE8C4
:10189000F087012085F8280000BF022085F8290084
:1018A0004FB9607800F01000102804D1607800F083
:1018B000EF000A30607097B9E07800F0C9FC4FEA99
:1018C0000049607800F0C4FC49EA0029A07800F0E3
:1018D000BFFC49EA0009207849EA403809E0E0788D
:1018E0000004617840EA0120A1780843217840EAA9
:1018F000413800BFCA2029684862532029684862DD
:1019000000BF284600F0B2FC064646B90C4808EA7B
:10191000000029684860284600F0CEFC064600BF5B
:10192000FF202968486200BF16B9012085F8290008
:1019300000BF002085F8280000BF3046A7E7000060
:101940003FFFFF002DE9F04704460D46904600BFDB
:1019500094F82800012802D10220BDE8F087012078
:1019600084F8280000BF022084F8290000BFCA20A4
:101970002168486253202168486200BF204600F079
:1019800075FC0646002E47D1B8F1000F1BD1206828
:10199000806900F0400000B102E00020E87000BF64
:1019A000287800F055FC4FEA0049687800F050FCB8
:1019B00049EA0029A87800F04BFC49EA0009E878D8
:1019C00049EA805712E02068806900F0400000B1C9
:1019D00002E00020E87000BF28780004697840EA3F
:1019E0000120A9780843E97840EA81571248384035
:1019F000216808602068806920F48020216888615F
:101A0000D5E9030108432168896908432168886191
:101A1000204600F051FC064600BFFF2021684862C6
:101A200000BF16B9012084F8290000BF002084F807
:101A3000280000BF304690E77F7F7F0070B50446E6
:101A40002068C06820F0A0002168C860FEF7D0FEC2
:101A5000054607E0FEF7CCFE401BB0F57A7F01D9C2
:101A6000032070BD2068C06800F020000028F1D07D
:101A70000020F6E770B504462546681EB0F1807F69
:101A800001D301200FE0681E4FF0E02148610F21D3
:101A90004FF0FF3000F0C6FE00204FF0E0218861DB
:101AA00007200861002070BD30B502460B4600BF1C
:101AB00092F83C00012801D1022030BD012082F8BB
:101AC0003C0000BF022082F83D00106841681068A9
:101AD0008468154D1068A84203D121F4700158683C
:101AE000014321F0700118680143106841600E4DF8
:101AF0001068A84207D01068B0F1804F03D00B4D9A
:101B00001068A84205D124F0800498680443106846
:101B10008460012082F83D0000BF002082F83C0074
:101B200000BF00BFC9E70000002C01400040014099
:101B300010B504460CB9012010BD94F83D0028B939
:101B4000002084F83C00204600F00CF8022084F8C5
:101B50003D00211D206800F04DFC012084F83D006F
:101B60000020E9E708B50168B1F1804F1AD100BF44
:101B70000D49896D41F001010B4A91651146896D4E
:101B800001F00101009100BF00BF00BF1146096EC6
:101B900041F4803111661146096E01F480310091E3
:101BA00000BF00BF08BD0000001002400146022037
:101BB00081F83D0008688068094B00EA0302062AA4
:101BC00008D0B2F5803F05D00868006840F00100F9
:101BD0000B681860012081F83D000020704700006C
:101BE000070001002DE9F04104460D4600BF94F8BE
:101BF0003C00012802D10220BDE8F081012084F8D8
:101C00003C0000BF022084F83D0020688668374809
:101C1000064026F47F46206886602868502833D026
:101C20000CDC202850D004DC00284BD0102851D1E7
:101C300049E0302849D040284CD139E060282DD0E7
:101C4000702807D0B0F5805F03D0B0F5005F41D1B8
:101C50000DE040E0D5E902136A68206800F015FC49
:101C60002068866846F077062068866033E0D5E90C
:101C700002136A68206800F008FC2068806840F45D
:101C800080402168886026E0EA686968206800F082
:101C900071FD5021206800F003FC1CE0EA686968CF
:101CA000206800F07AFD6021206800F0F9FB12E066
:101CB000EA686968206800F05DFD4021206800F056
:101CC000EFFB08E000BF00BF00BF2968206800F0FC
:101CD000E7FB00E000BF00BF012084F83D0000BF2B
:101CE000002084F83C0000BF00BF85E788FFFEFFAE
:101CF00010B586B00446142101A8FEF76AFA2068E0
:101D0000B0F1804F24D100BF1248C06C40F00100F8
:101D10001049C8640846C06C00F00100009000BF84
:101D200000BF022001900290012003900020049047
:101D30000120059001A94FF09040FEF77BFC0420A4
:101D400001900E20059001A94FF09040FEF772FC23
:101D500006B010BD0010024070B504460D46164690
:101D600000BF94F83C00012801D1022070BD012081
:101D700084F83C0000BF022084F83D000C2E51D0B6
:101D800005DC4EB1042E1ED0082E7AD133E0102E81
:101D900060D0142EF9D175E02946206800F08AFB46
:101DA0002068806940F008002168886120688069A7
:101DB00020F004002168886120688069296908434F
:101DC0002168886177E02946206800F0B7FB206829
:101DD000806940F40060216888612068806920F48F
:101DE00080602168886120688069296940EA012053
:101DF000216888615FE02946206800F0E7FB2068E1
:101E0000C06940F008002168C8612068C06920F0FE
:101E100004002168C8612068C069296908432168F5
:101E2000C86148E02946206800F018FC2068C069B5
:101E300040F400602168C8612068C06920F48060B7
:101E40002168C8612068C069296940EA01202168C9
:101E5000C86130E02946206800F030FC2068406D01
:101E600040F00800216848652068406D20F00400BB
:101E7000216848652068406D2969084321684865E4
:101E800019E017E02946206800F046FC2068406D04
:101E900040F40060216848652068406D20F480604F
:101EA000216848652068406D296940EA0120216861
:101EB000486500E000BF00BF012084F83D0000BF7E
:101EC000002084F83C0000BF00BF4FE710B5044677
:101ED0000CB9012010BD94F83D0028B9002084F809
:101EE0003C00204600F00CF8022084F83D00211D43
:101EF000206800F07FFA012084F83D000020E9E727
:101F00007047000070B504460E4601223146206835
:101F100000F0AAFA13492068884207D012492068C5
:101F2000884203D011492068884201D1012000E095
:101F3000002028B12068406C40F4004021684864CB
:101F4000206880680A4900EA0105062D08D0B5F529
:101F5000803F05D02068006840F0010021680860DB
:101F6000002070BD002C01400040014000440140B1
:101F70000700010000BFFEE7F0B585B01A2003900E
:101F80000020019001200490002000900C4930C9ED
:101F9000FEF738FB4FF0FF3184EA01006940084347
:101FA00003D0694601A8FEF747FA661C45F1000315
:101FB000324603490020FEF7C5FA05B0F0BD000027
:101FC00000D0000808B500BF0648C06C40F0010012
:101FD0000449C8640846C06C00F00100009000BFCE
:101FE00000BF08BD0010024000B587B0142102A850
:101FF000FEF7EFF80020019019481A490860002008
:1020000088607F211748C160FF2101610021416183
:102010008161C1614FF08041016200214162FFF79F
:10202000BBFB00208DF808008DF809008DF80A0030
:1020300005900690012202A90A48FFF783FC0120BF
:102040008DF804008DF805008DF8060000208DF84D
:102050000700012201A90348FFF70EFC07B000BDED
:10206000002800403000002000B58FB000200B9009
:102070000C900D900E90089009900A901C2101A8D8
:10208000FEF7A7F81A481B49086040F28F10486015
:102090000021184881600121C16000210161802177
:1020A0008161FFF745FD4FF480500B900BA911485B
:1020B000FFF798FD0F48FFF709FF002008900A90EE
:1020C00008A90C48FFF7F0FC602001900020029066
:1020D00003900590002201A90648FFF73DFE054840
:1020E000FFF764FD00210348FFF70CFF0FB000BDB0
:1020F000004001409C00002000B58FB000200B90F4
:102100000C900D900E90089009900A901C2101A847
:10211000FEF75FF81E48FFF725FD4FF080401C4991
:10212000086040F28F104860002119488160012149
:10213000C1600021016180218161FFF7F9FC4FF44A
:1021400080500B900BA91248FFF74CFD1048FFF789
:10215000BDFE002008900A9008A90D48FFF7A4FCD6
:10216000602001900020029003900590042201A9B4
:102170000748FFF7F1FD0748FFF718FD0421044861
:10218000FFF7C0FE0248FFF7B3FD0FB000BD00002F
:102190005C0000209C00002000BFFEE770477047F5
:1021A000F8B5044600262348806D00F0805018B131
:1021B000FEF728FC054616E000BF1E48806D40F083
:1021C00080501C4988650846806D00F08050009062
:1021D00000BF00BFFEF716FC05461648806D20F0D4
:1021E000805014498865B5F5007F07D1802C10D93F
:1021F000A02C01D902260CE001260AE0802C01D98E
:10220000032606E0802C01D1022602E0702C00D1CA
:1022100001260948006820F007003043064908609D
:102220000846006800F00700B04201D00120F8BD68
:102230000020FCE70010024000200240014608098F
:1022400000EB8000420001F00F001044C0B2704764
:1022500002460023114603E05B1CA1F10A00C1B253
:102260000A29F9D2180741EA1060704770B5044690
:1022700000262068C06800F04000D0B92068C0681F
:1022800040F080002168C860FEF7B2FA054609E018
:10229000FEF7AEFA401BB0F57A7F03D90326032080
:1022A00084F829002068C06800F0400008B9032EB7
:1022B000EED1304670BD000070B5044600251748C9
:1022C000006820F080001549086014480C30006850
:1022D00000F0200040B92046FFF7B0FBE0B103203A
:1022E00084F82900032517E00C480C30006820F022
:1022F00020000A490C3108602046FFF79FFB18B107
:10230000032084F82900032504480C30006840F0BD
:10231000200002490C310860284670BD0C2800409E
:102320004FF080429063014A516370470040014082
:10233000704710B5FEF762FA10BD00B5A3B0442196
:1023400012A8FDF746FF14210DA8FDF742FF342126
:102350006846FDF73EFF4FF40070FEF70DFB1820B6
:10236000129001201790199000201A9060201B9065
:1023700000201D9012A8FEF7D3FD0F200D90002025
:102380000E900F901090119000210DA8FEF794FC74
:102390004FF40030009000120C906846FEF73AFBB4
:1023A00023B000BD1048006840F470000E4908607A
:1023B0000E48006840F001000C4908600020886069
:1023C000084600680A490840084908608814C8603F
:1023D0000846006820F48020086000208861C80357
:1023E000014980390860704788ED00E00010024024
:1023F000FFFFF6EA10B50268184B984202D0B0F120
:10240000804F03D122F070024B681A43134B98425D
:1024100008D0B0F1804F05D0114B984202D0114B3B
:10242000984203D122F44072CB681A4322F0800311
:102430004C6943EA040202608B68C3620B688362E2
:10244000064B984205D0064B984202D0054B984265
:1024500001D10B6903630123436110BD002C0140CE
:10246000004001400044014030B501F01F05012447
:1024700004FA05F3046A9C430462046A01F01F0530
:1024800002FA05F52C43046230BD30B50C46816874
:1024900021F47F4142EA032525432943816030BD71
:1024A0000A46816821F0700142F0070319438160F8
:1024B0007047000030B5056A25F001050562026A23
:1024C00043688469194D2C4024F003040D682C43A3
:1024D00022F002028D682A43154DA84200D107E080
:1024E000144DA84200D103E0134DA84206D100BF0D
:1024F00022F00802CD682A4322F004020C4DA842C3
:1025000005D00C4DA84202D00B4DA84207D123F4B0
:10251000807323F400734D692B438D692B43436013
:1025200084614D684563026230BD00008FFFFEFF8D
:10253000002C0140004001400044014030B5056AD4
:1025400025F010050562026A436884691B4D2C4022
:1025500024F440740D6844EA052422F020028D68BA
:1025600042EA0512164DA84200D107E0154DA842D7
:1025700000D100BF144DA84207D106E022F080022E
:10258000CD6842EA051222F040020D4DA84205D066
:102590000C4DA84202D00C4DA84209D123F480630F
:1025A00023F400634D6943EA85038D6943EA85039B
:1025B000436084614D688563026230BDFF8FFFFE1A
:1025C000002C0140004001400044014030B5056A44
:1025D00025F480750562026A4368C4691B4D2C406E
:1025E00024F003040D682C4322F400728D6842EA43
:1025F0000522174DA84200D107E0164DA84200D190
:1026000000BF154DA84207D106E022F40062CD6854
:1026100042EA052222F480620D4DA84205D00D4DFC
:10262000A84202D00C4DA84209D123F4805323F4D0
:1026300000534D6943EA05138D6943EA051343606E
:10264000C4614D68C563026230BD00008FFFFEFFAC
:10265000002C0140004001400044014030B5056AB3
:1026600025F480550562036A4468C2690F4D2A400B
:1026700022F440720D6842EA052223F400538D686B
:1026800043EA05330A4DA84205D00A4DA84202D0BC
:10269000094DA84204D124F480444D6944EA8514CC
:1026A0004460C2614D680564036230BDFF8FFFFE68
:1026B000002C0140004001400044014030B5056A53
:1026C00025F480350562026A4368446D0E4D2C4046
:1026D0000D682C4322F400320D8942EA05420B4D6D
:1026E000A84205D00A4DA84202D00A4DA84204D102
:1026F00023F480334D6943EA0523436044654D6804
:102700008565026230BD00008FFFFEFF002C014096
:10271000004001400044014030B5056A25F48015B1
:102720000562026A4468436D0E4D2B400D6843EA12
:10273000052322F400120D8942EA05520A4DA842EF
:1027400005D00A4DA84202D0094DA84204D124F474
:1027500080244D6944EA8524446043654D68C5651D
:10276000026230BDFF8FFFFE002C0140004001409F
:102770000044014030B50B461446026A056A25F054
:1027800001050562816921F0F00141EA041122F09E
:102790000A021A438161026230BD30B50B4614460D
:1027A000056A25F0100505628169026A21F470410D
:1027B00041EA043122F0A00242EA0312816102627E
:1027C00030BD00BFFEE7000010B586B004461421FE
:1027D00001A8FDF7FEFC00200090012201A90C4891
:1027E000FFF7B0F8012269460948FFF745F809E00C
:1027F000012201A90648FEF7A1FF0122694604480B
:10280000FEF776FF9DF80500A042F1DB06B010BD93
:102810003000002002480068C0F30220704700002A
:102820000CED00E010B5002804DB0A07130E054A82
:10283000135406E00A07140E034A00F00F031B1F8F
:10284000D45410BD00E400E018ED00E002E008C838
:10285000121F08C1002AFAD170477047002001E01A
:1028600001C1121F002AFBD170470000FDF7D2FF03
:10287000FFF763FDFFF7A6FBFFF7B6FBFFF73CFC96
:10288000FFF7F2FBFDF7CEFD054600BF17480068D5
:10289000C5621648C56000BFFDF7A2FD044600BF33
:1028A00013480068C4621248C46000BF2846FDF7A0
:1028B000ADFD07462046FDF787FD0646FDF7A0FD66
:1028C0008046FDF797FD81460FE039B230B2FFF741
:1028D00027FD4046FFF778FFFFF74EFB0021084633
:1028E000FFF71EFD4846FFF76FFFEEE75C00002094
:1028F0009C00002000000000000000000102030412
:10290000060708090000000001020304A086010078
:10291000400D0300801A060000350C0040420F00F5
:1029200080841E0000093D0000127A000024F4009B
:1029300000366E010048E801006CDC025C290008EA
:1029400000000020300000004C2800088C290008FE
:1029500030000020B00400005C28000800000000E7
:102960001000000001000000000000000000000056
:102970000000000000000000010000000000000056
:0C298000000000000000000000093D0005
:040000050800018D61
:00000001FF
